{
  "contractName": "SmartBike",
  "abi": [
    {
      "inputs": [],
      "stateMutability": "nonpayable",
      "type": "constructor"
    },
    {
      "anonymous": false,
      "inputs": [
        {
          "indexed": false,
          "internalType": "uint256",
          "name": "bikeId",
          "type": "uint256"
        },
        {
          "indexed": false,
          "internalType": "address",
          "name": "renter",
          "type": "address"
        }
      ],
      "name": "BikeRented",
      "type": "event"
    },
    {
      "anonymous": false,
      "inputs": [
        {
          "indexed": false,
          "internalType": "uint256",
          "name": "bikeId",
          "type": "uint256"
        },
        {
          "indexed": false,
          "internalType": "address",
          "name": "renter",
          "type": "address"
        }
      ],
      "name": "BikeReturned",
      "type": "event"
    },
    {
      "inputs": [
        {
          "internalType": "uint256",
          "name": "",
          "type": "uint256"
        }
      ],
      "name": "bikes",
      "outputs": [
        {
          "internalType": "uint256",
          "name": "id",
          "type": "uint256"
        },
        {
          "internalType": "string",
          "name": "qrCode",
          "type": "string"
        },
        {
          "internalType": "bool",
          "name": "available",
          "type": "bool"
        }
      ],
      "stateMutability": "view",
      "type": "function",
      "constant": true
    },
    {
      "inputs": [],
      "name": "owner",
      "outputs": [
        {
          "internalType": "address",
          "name": "",
          "type": "address"
        }
      ],
      "stateMutability": "view",
      "type": "function",
      "constant": true
    },
    {
      "inputs": [
        {
          "internalType": "address",
          "name": "",
          "type": "address"
        }
      ],
      "name": "rentedBikes",
      "outputs": [
        {
          "internalType": "uint256",
          "name": "",
          "type": "uint256"
        }
      ],
      "stateMutability": "view",
      "type": "function",
      "constant": true
    },
    {
      "inputs": [
        {
          "internalType": "uint256",
          "name": "bikeId",
          "type": "uint256"
        },
        {
          "internalType": "string",
          "name": "qrCode",
          "type": "string"
        }
      ],
      "name": "addBike",
      "outputs": [],
      "stateMutability": "nonpayable",
      "type": "function"
    },
    {
      "inputs": [
        {
          "internalType": "uint256",
          "name": "bikeId",
          "type": "uint256"
        }
      ],
      "name": "rentBike",
      "outputs": [],
      "stateMutability": "nonpayable",
      "type": "function"
    },
    {
      "inputs": [],
      "name": "returnBike",
      "outputs": [],
      "stateMutability": "nonpayable",
      "type": "function"
    }
  ],
  "bytecode": "0x608060405234801561001057600080fd5b5033600260006101000a81548173ffffffffffffffffffffffffffffffffffffffff021916908373ffffffffffffffffffffffffffffffffffffffff160217905550610c02806100616000396000f3fe608060405234801561001057600080fd5b50600436106100625760003560e01c806357701eac146100675780635c526e191461009757806360a6673c146100c95780637ad8f224146100d35780638da5cb5b146100ef578063d227b1fd1461010d575b600080fd5b610081600480360381019061007c9190610698565b610129565b60405161008e91906106de565b60405180910390f35b6100b160048036038101906100ac9190610725565b610141565b6040516100c093929190610806565b60405180910390f35b6100d1610200565b005b6100ed60048036038101906100e89190610725565b610336565b005b6100f761044f565b6040516101049190610853565b60405180910390f35b610127600480360381019061012291906109a3565b610475565b005b60016020528060005260406000206000915090505481565b600060205280600052604060002060009150905080600001549080600101805461016a90610a2e565b80601f016020809104026020016040519081016040528092919081815260200182805461019690610a2e565b80156101e35780601f106101b8576101008083540402835291602001916101e3565b820191906000526020600020905b8154815290600101906020018083116101c657829003601f168201915b5050505050908060020160009054906101000a900460ff16905083565b6000600160003373ffffffffffffffffffffffffffffffffffffffff1673ffffffffffffffffffffffffffffffffffffffff16815260200190815260200160002054905060008103610287576040517f08c379a000000000000000000000000000000000000000000000000000000000815260040161027e90610aab565b60405180910390fd5b600160008083815260200190815260200160002060020160006101000a81548160ff0219169083151502179055506000600160003373ffffffffffffffffffffffffffffffffffffffff1673ffffffffffffffffffffffffffffffffffffffff168152602001908152602001600020819055507f336101a9f59e20e12cae55c7601d2dd386935dd838b1e2937183a984d065b61e813360405161032b929190610acb565b60405180910390a150565b806001151560008083815260200190815260200160002060020160009054906101000a900460ff161515146103a0576040517f08c379a000000000000000000000000000000000000000000000000000000000815260040161039790610b40565b60405180910390fd5b600080600084815260200190815260200160002060020160006101000a81548160ff02191690831515021790555081600160003373ffffffffffffffffffffffffffffffffffffffff1673ffffffffffffffffffffffffffffffffffffffff168152602001908152602001600020819055507f6223642fbeabfbfc79d779101dc6969b9acfd06629d43d8ed64c8575bca390d38233604051610443929190610acb565b60405180910390a15050565b600260009054906101000a900473ffffffffffffffffffffffffffffffffffffffff1681565b600260009054906101000a900473ffffffffffffffffffffffffffffffffffffffff1673ffffffffffffffffffffffffffffffffffffffff163373ffffffffffffffffffffffffffffffffffffffff1614610505576040517f08c379a00000000000000000000000000000000000000000000000000000000081526004016104fc90610bac565b60405180910390fd5b60405180606001604052808381526020018281526020016001151581525060008084815260200190815260200160002060008201518160000155602082015181600101908051906020019061055b929190610583565b5060408201518160020160006101000a81548160ff0219169083151502179055509050505050565b82805461058f90610a2e565b90600052602060002090601f0160209004810192826105b157600085556105f8565b82601f106105ca57805160ff19168380011785556105f8565b828001600101855582156105f8579182015b828111156105f75782518255916020019190600101906105dc565b5b5090506106059190610609565b5090565b5b8082111561062257600081600090555060010161060a565b5090565b6000604051905090565b600080fd5b600080fd5b600073ffffffffffffffffffffffffffffffffffffffff82169050919050565b60006106658261063a565b9050919050565b6106758161065a565b811461068057600080fd5b50565b6000813590506106928161066c565b92915050565b6000602082840312156106ae576106ad610630565b5b60006106bc84828501610683565b91505092915050565b6000819050919050565b6106d8816106c5565b82525050565b60006020820190506106f360008301846106cf565b92915050565b610702816106c5565b811461070d57600080fd5b50565b60008135905061071f816106f9565b92915050565b60006020828403121561073b5761073a610630565b5b600061074984828501610710565b91505092915050565b600081519050919050565b600082825260208201905092915050565b60005b8381101561078c578082015181840152602081019050610771565b8381111561079b576000848401525b50505050565b6000601f19601f8301169050919050565b60006107bd82610752565b6107c7818561075d565b93506107d781856020860161076e565b6107e0816107a1565b840191505092915050565b60008115159050919050565b610800816107eb565b82525050565b600060608201905061081b60008301866106cf565b818103602083015261082d81856107b2565b905061083c60408301846107f7565b949350505050565b61084d8161065a565b82525050565b60006020820190506108686000830184610844565b92915050565b600080fd5b600080fd5b7f4e487b7100000000000000000000000000000000000000000000000000000000600052604160045260246000fd5b6108b0826107a1565b810181811067ffffffffffffffff821117156108cf576108ce610878565b5b80604052505050565b60006108e2610626565b90506108ee82826108a7565b919050565b600067ffffffffffffffff82111561090e5761090d610878565b5b610917826107a1565b9050602081019050919050565b82818337600083830152505050565b6000610946610941846108f3565b6108d8565b90508281526020810184848401111561096257610961610873565b5b61096d848285610924565b509392505050565b600082601f83011261098a5761098961086e565b5b813561099a848260208601610933565b91505092915050565b600080604083850312156109ba576109b9610630565b5b60006109c885828601610710565b925050602083013567ffffffffffffffff8111156109e9576109e8610635565b5b6109f585828601610975565b9150509250929050565b7f4e487b7100000000000000000000000000000000000000000000000000000000600052602260045260246000fd5b60006002820490506001821680610a4657607f821691505b602082108103610a5957610a586109ff565b5b50919050565b7f596f7520646f6e2774206861766520612072656e7465642062696b6500000000600082015250565b6000610a95601c8361075d565b9150610aa082610a5f565b602082019050919050565b60006020820190508181036000830152610ac481610a88565b9050919050565b6000604082019050610ae060008301856106cf565b610aed6020830184610844565b9392505050565b7f42696b65206973206e6f7420617661696c61626c650000000000000000000000600082015250565b6000610b2a60158361075d565b9150610b3582610af4565b602082019050919050565b60006020820190508181036000830152610b5981610b1d565b9050919050565b7f4e6f7420746865206f776e657200000000000000000000000000000000000000600082015250565b6000610b96600d8361075d565b9150610ba182610b60565b602082019050919050565b60006020820190508181036000830152610bc581610b89565b905091905056fea26469706673582212203f9365b44a11a5610961e0e8ebf70a6387f2116d63f67035526c6fbefbfac91764736f6c634300080d0033",
  "immutableReferences": {},
  "source": "// SPDX-License-Identifier: MIT\r\npragma solidity ^0.8.0;\r\n\r\ncontract SmartBike {\r\n    struct Bike {\r\n        uint id;\r\n        string qrCode;\r\n        bool available;\r\n    }\r\n\r\n    mapping(uint => Bike) public bikes;\r\n\r\n    mapping(address => uint) public rentedBikes;\r\n\r\n    address public owner;\r\n\r\n    event BikeRented(uint bikeId, address renter);\r\n    event BikeReturned(uint bikeId, address renter);\r\n\r\n    constructor() {\r\n        owner = msg.sender;\r\n    }\r\n\r\n    modifier onlyOwner() {\r\n        require(msg.sender == owner, \"Not the owner\");\r\n        _;\r\n    }\r\n\r\n    modifier isBikeAvailable(uint bikeId) {\r\n        require(bikes[bikeId].available == true, \"Bike is not available\");\r\n        _;\r\n    }\r\n\r\n    function addBike(uint bikeId, string memory qrCode) public onlyOwner {\r\n        bikes[bikeId] = Bike(bikeId, qrCode, true);\r\n    }\r\n\r\n    function rentBike(uint bikeId) public isBikeAvailable(bikeId) {\r\n        bikes[bikeId].available = false;\r\n        rentedBikes[msg.sender] = bikeId;\r\n        emit BikeRented(bikeId, msg.sender);\r\n    }\r\n\r\n    function returnBike() public {\r\n        uint bikeId = rentedBikes[msg.sender];\r\n        require(bikeId != 0, \"You don't have a rented bike\");\r\n        \r\n        bikes[bikeId].available = true;\r\n        rentedBikes[msg.sender] = 0;\r\n        \r\n        emit BikeReturned(bikeId, msg.sender);\r\n    }\r\n}\r\n",
  "sourcePath": "D:\\SmartBike\\contracts\\SmartBike.sol",
  "compiler": {
    "name": "solc",
    "version": "0.8.13+commit.abaa5c0e.Emscripten.clang"
  },
  "schemaVersion": "3.4.16",
  "updatedAt": "2024-09-29T22:25:38.712Z",
  "networkType": "ethereum",
  "devdoc": {
    "kind": "dev",
    "methods": {},
    "version": 1
  },
  "userdoc": {
    "kind": "user",
    "methods": {},
    "version": 1
  }
}